:100000000C9463000C948B000C948B000C948B006C
:100010000C948B000C948B000C948B000C948B0034
:100020000C948B000C948B000C948B000C943B0470
:100030000C948B000C948B000C948B000C948B0014
:100040000C94FC040C948B000C946C050C944605E9
:100050000C948B000C948B000C948B000C948B00F4
:100060000C948B000C948B000000000023002600F1
:10007000290000000000240027002A0000000000E2
:10008000250028002B0004040404040404040202D4
:100090000202020203030303030301020408102007
:1000A0004080010204081020010204081020000012
:1000B0000008000201000003040700000000000027
:1000C00000009E05AB0A11241FBECFEFD8E0DEBFB3
:1000D000CDBF11E0A0E0B1E0E8EDFBE102C005908A
:1000E0000D92A638B107D9F722E0A6E8B1E001C029
:1000F0001D92AC39B207E1F710E0C2E6D0E004C0CF
:100100002197FE010E94BB0AC136D107C9F70E94A0
:1001100001060C94DF0D0C940000E091CD01F091EC
:10012000CE010190F081E02D682F8DEC91E00994D3
:10013000833081F028F4813099F08230A1F0089565
:100140008730A9F08830B9F08430D1F480918000F4
:100150008F7D03C0809180008F7780938000089509
:1001600084B58F7702C084B58F7D84BD089580915A
:10017000B0008F7703C08091B0008F7D8093B00076
:1001800008951F93CF93DF93282F30E0F901E255B4
:10019000FF4F8491F901E656FF4FD491F901EA57D8
:1001A000FF4FC491CC23C9F0162F81110E949800F3
:1001B000EC2FF0E0EE0FFF1FE458FF4FA591B49134
:1001C0008FB7F894111105C09C91ED2FE095E923AC
:1001D00002C0EC91ED2BEC938FBFDF91CF911F917B
:1001E0000895CF93DF9390E0FC01E656FF4F2491F2
:1001F000FC01EA57FF4F8491882361F190E0880F5A
:10020000991FFC01EE58FF4FC591D491FC01E458B1
:10021000FF4FA591B491611109C09FB7F8948881EF
:10022000209582238883EC912E230BC0623061F4E9
:100230009FB7F8943881822F809583238883EC912F
:100240002E2B2C939FBF06C08FB7F894E8812E2BDE
:1002500028838FBFDF91CF9108958E3008F08E50A4
:100260008770806480937C0080917A0080648093A2
:100270007A0080917A0086FDFCCF809178002091F1
:10028000790090E0922B0895CF92DF92EF92FF9247
:100290000F931F93CF93DF936C017A018B01C0E022
:1002A000D0E0CE15DF0589F0D8016D918D01D60122
:1002B000ED91FC910190F081E02DC6010995892B0B
:1002C00011F47E0102C02196ECCFC701DF91CF91DE
:1002D0001F910F91FF90EF90DF90CF9008950895B8
:1002E00080E090E00895FC01538D448D252F30E08F
:1002F000842F90E0821B930B541710F0CF96089533
:1003000001970895FC01918D828D981761F0828D7F
:10031000DF01A80FB11D5D968C91928D9F5F9F7339
:10032000928F90E008958FEF9FEF0895FC01918DDB
:10033000828D981731F0828DE80FF11D858D90E048
:1003400008958FEF9FEF0895FC01918D228D892FE5
:1003500090E0805C9F4F821B91098F7399270895CD
:100360008DEC91E00E94A40121E0892B09F420E0AA
:10037000822F0895FC01848DDF01A80FB11DA35ABF
:10038000BF4F2C91848D90E001968F739927848FB5
:10039000A689B7892C93A089B1898C9180648C93AC
:1003A000938D848D981306C00288F389E02D808197
:1003B0008F7D80830895EF92FF920F931F93CF93C9
:1003C000DF93EC0181E0888F9B8D8C8D981305C0A5
:1003D000E889F989808185FD24C0F62E0B8D10E017
:1003E0000F5F1F4F0F731127E02E8C8DE8120CC08A
:1003F0000FB607FCFACFE889F989808185FFF5CF30
:10040000CE010E94BA01F1CF8B8DFE01E80FF11DE4
:10041000E35AFF4FF0820B8FEA89FB89808180626B
:1004200007C0EE89FF896083E889F989808180644B
:10043000808381E090E0DF91CF911F910F91FF9039
:10044000EF900895CF93DF93EC01888D8823C9F056
:10045000EA89FB89808185FD05C0A889B9898C91CD
:1004600086FD0FC00FB607FCF5CF808185FFF2CF68
:10047000A889B9898C9185FFEDCFCE010E94BA0180
:10048000E7CFDF91CF910895009769F0FC010190CB
:100490000020E9F73197AF01481B590BBC018DECE7
:1004A00091E00C94440180E090E008950C944402A3
:1004B0008F929F92AF92BF92CF92DF92EF92FF9274
:1004C0000F931F93CF93DF93CDB7DEB7A1970FB6EE
:1004D000F894DEBF0FBECDBF6C01990FEE08FF0888
:1004E000F7FE29C08DE20E948D008C012227332760
:1004F000A9012C193D094E095F0919A2CE01819667
:100500007C019AE0892E912CA12CB12CCA01B90151
:10051000A50194010E94AE0D605DF70162937F0119
:10052000211531054105510589F7CF010E9444028B
:10053000800F911F1DC0A701960119A28E010F5DAA
:100540001F4F8AE0C82ED12CE12CF12CCA01B90131
:10055000A70196010E94AE0D605DF80162938F01C4
:10056000211531054105510589F7CF010E9444024B
:10057000A1960FB6F894DEBF0FBECDBFDF91CF912D
:100580001F910F91FF90EF90DF90CF90BF90AF90B1
:100590009F908F900895FC01808191810C94560B5F
:1005A000CF93DF93682F80919302909194020C97E0
:1005B00080F0C0918F02D0919002062E000C770B34
:1005C000CE010B960E94C60C009719F08C1B9D0B58
:1005D00002C08FEF9FEFDF91CF9108950E94B80C7A
:1005E000FC0180819181009711F00C94090D60E06D
:1005F00070E0CB010895FC0124813581232B31F477
:1006000021E061157105A1F0FB0108C0FC018081AA
:1006100091816115710531F421E0FC01808188230D
:1006200039F005C00E94D10C21E0892B09F020E0AF
:10063000822F08950F931F93CF93DF93EC0188814E
:100640009981009729F02A813B812617370788F482
:100650008B016F5F7F4F0E94EE0B009761F09983D3
:1006600088831B830A832C813D81232B11F4FC0199
:10067000108281E001C080E0DF91CF911F910F9146
:100680000895EF92FF920F931F93CF93DF93EC01A6
:100690007B018A01BA010E941A03288139818111E4
:1006A0000DC02115310519F0C9010E94560B1982A0
:1006B00018821D821C821B821A8206C01D830C8335
:1006C000B701C9010E94DA0CCE01DF91CF911F91D1
:1006D0000F91FF90EF900895FC0111821082138218
:1006E0001282158214826115710551F0FB0101908F
:1006F0000020E9F73197AF01461B570B0C944103DB
:100700000895DF92EF92FF920F931F93CF93DF93A1
:100710007C01EB018A014617570720F48D2FEA016F
:10072000062F182F66E371E0C7010E946C038091C9
:10073000930290919402C817D907B0F580179107DA
:1007400008F48C01E0918F02F0919002E00FF11F0C
:10075000D080108260918F02709190026C0F7D1F8B
:100760006115710561F0FB0101900020E9F73197F7
:10077000AF01461B570BC7010E9441030EC0F70192
:1007800080819181009711F00E94560BF701118230
:1007900010821582148213821282E0918F02F091EE
:1007A0009002E00FF11FD082C701DF91CF911F911E
:1007B0000F91FF90EF90DF900895CF93DF93EC01BE
:1007C00040919302509194020E948103CE01DF91E7
:1007D000CF910895EF92FF920F931F93CF93DF93E2
:1007E00000D0CDB7DEB7EE24E3948DEC91E00E940B
:1007F000A401892B89F18091C20181112DC08DEC5A
:1008000091E00E948201F82E89831A82009193025E
:10081000109194020F5F1F4FB8018FE892E00E9481
:100820001A03882399F020918F02309190028091D1
:10083000930290919402BE016F5F7F4F820F931FCE
:100840000E94DA0C10939402009393028AE0F8124B
:10085000CCCFE092C201C9CF0F900F90DF91CF9122
:100860001F910F91FF90EF9008950E94B0018111A8
:100870000C94EA0308951F920F920FB60F92112461
:100880002F933F934F935F936F937F938F939F9398
:10089000AF93BF93EF93FF938091CC0187FF05C087
:1008A00010928500109284001BC02091CC01022E72
:1008B000000C330B80918E0290E02817390784F4E6
:1008C0008091CC01082E000C990BFC01EE0FFF1F4C
:1008D0008E0F9F1FFC01E659FD4F808186FD15C0DC
:1008E0008091CC018F5F8093CC012091CC01022EAE
:1008F000000C330B80918E0290E028173907C4F466
:100900008091CC018C3064F113C08091CC01082E11
:10091000000C990BFC01EE0FFF1F8E0F9F1FFC01B7
:10092000E659FD4F808160E08F730E94C100D8CFEF
:100930008091840090918500049680349C4918F43D
:1009400080E49CE905C08091840090918500049624
:1009500090938900809388008FEF8093CC013BC0F7
:1009600020918400309185008091CC01082E000CEC
:10097000990BFC01EE0FFF1F8E0F9F1FFC01E65924
:10098000FD4F81819281820F931F90938900809304
:1009900088008091CC01082E000C990BFC01EE0F11
:1009A000FF1F8E0F9F1FFC01E659FD4F808186FFC0
:1009B00012C08091CC01082E000C990BFC01EE0FA7
:1009C000FF1F8E0F9F1FFC01E659FD4F808161E0E4
:1009D0008F730E94C100FF91EF91BF91AF919F91E2
:1009E0008F917F916F915F914F913F912F910F90D8
:1009F0000FBE0F901F9018951F920F920FB60F9277
:100A000011242F933F938F939F93AF93BF93809124
:100A1000C8019091C901A091CA01B091CB01309158
:100A2000C70123E0230F2D3720F40196A11DB11D2E
:100A300005C026E8230F0296A11DB11D2093C70112
:100A40008093C8019093C901A093CA01B093CB01D0
:100A50008091C3019091C401A091C501B091C601DC
:100A60000196A11DB11D8093C3019093C401A09371
:100A7000C501B093C601BF91AF919F918F913F91F6
:100A80002F910F900FBE0F901F9018951F920F92ED
:100A90000FB60F9211242F933F934F935F936F9351
:100AA0007F938F939F93AF93BF93EF93FF938DECBF
:100AB00091E00E94BA01FF91EF91BF91AF919F9198
:100AC0008F917F916F915F914F913F912F910F90F7
:100AD0000FBE0F901F9018951F920F920FB60F9296
:100AE00011242F938F939F93EF93FF93E091DD0158
:100AF000F091DE018081E091E301F091E40182FD5B
:100B000012C090818091E6018F5F8F732091E70181
:100B1000821751F0E091E601F0E0E353FE4F958F2C
:100B20008093E60101C08081FF91EF919F918F91A9
:100B30002F910F900FBE0F901F9018951092D0011B
:100B40001092CF0188EE93E0A0E0B0E08093D10155
:100B50009093D201A093D301B093D4018EE091E0A1
:100B60009093CE018093CD0185EC90E09093DA01D3
:100B70008093D90184EC90E09093DC018093DB01B9
:100B800080EC90E09093DE018093DD0181EC90E0B9
:100B90009093E0018093DF0182EC90E09093E2017A
:100BA0008093E10186EC90E09093E4018093E3016F
:100BB0001092E6011092E7011092E8011092E9010B
:100BC00080918E028C30A0F491E0980F90938E0269
:100BD0008093950290E0FC01EE0FFF1F8E0F9F1F88
:100BE000FC01E659FD4F88EB9BE09283818303C0B3
:100BF0008FEF8093950266E371E08FE892E00C94AA
:100C00006C03CF93DF93CDB7DEB72E970FB6F89472
:100C1000DEBF0FBECDBF789484B5826084BD84B53D
:100C2000816084BD85B5826085BD85B5816085BDE7
:100C300080916E00816080936E001092810080919F
:100C40008100826080938100809181008160809327
:100C50008100809180008160809380008091B1004C
:100C600084608093B1008091B00081608093B00077
:100C700080917A00846080937A0080917A0082600B
:100C800080937A0080917A00816080937A008091CD
:100C90007A00806880937A001092C100E091DD01B3
:100CA000F091DE0182E08083E091D901F091DA01D8
:100CB0001082E091DB01F091DC0180E180831092F1
:100CC000E501E091E101F091E20186E08083E091AD
:100CD000DF01F091E001808180618083E091DF019C
:100CE000F091E001808188608083E091DF01F091E4
:100CF000E001808180688083E091DF01F091E00174
:100D000080818F7D80838CE191E00E94560288E291
:100D100091E00E9456028AE00E948D008DEC91E0E5
:100D20000E942202E8E9F1E0A4EBB1E08FEF9FEF2F
:100D30001D928193919321E0E43BF207C9F7E6E825
:100D4000F1E0A2E9B1E08FEF9FEF1D9281939193C3
:100D500041E0E239F407C9F712E061E0812F0E9417
:100D6000F10060E0812F0E94C1001F5F1E30A9F7D3
:100D7000809195028C3008F051C061E089E00E94BA
:100D8000F10080919502E82FF0E09F01220F331FC0
:100D9000E20FF31FE659FD4F9081907C996090839C
:100DA00010929602109297026CE00E94AF0A5CE0EB
:100DB000859FB001112440E050E09A01260F371FB3
:100DC000F901EE0FFF1F2E0F3F1FF901E659FD4FEE
:100DD000908196FD16C04F5F5F4F4C30510569F70B
:100DE00081110FC01092800082E0809381001092E8
:100DF000850010928400B19A80916F008260809388
:100E00006F00E0919502F0E0CF01880F991FE80F85
:100E1000F91FE659FD4F808180648083EE24EA94B7
:100E2000FE2C48E8242E312C54EB452E512C612CFD
:100E3000712C8091C201882309F4EBC260E371E058
:100E4000CE0101960E946C034D815E8180919302D8
:100E5000909194028417950780F080918F02909171
:100E60009002009751F069817A816115710529F02E
:100E70000E94E10C11E0892B09F010E0CE010196EF
:100E80000E94CB02112309F4BAC24AE050E066E0A6
:100E900070E0CE0101960E94810367E371E0CE010C
:100EA00001960E94FB02182FCE0101960E94CB02F0
:100EB000111155C24AE050E066E070E0CE010196A3
:100EC0000E9481036CE371E0CE0101960E94FB0257
:100ED000182FCE0101960E94CB02112309F47FC086
:100EE0008FE20E94D0028C01AC016BE070E0CE0179
:100EF00007960E948103B8016F5F7F4FCE01019674
:100F00000E94DD03CE0107960E94F002862F61E069
:100F10000E94F100CE0101960E94F002D62E972E7B
:100F2000062F172FCE0107960E94F002C62E61E011
:100F30008C2D0E94F1000115110509F44BC00F3FE3
:100F4000110509F449C0EC2DF0E0E255FF4FE491A2
:100F5000E33009F148F4E130C9F0E230C1F584B57D
:100F6000806284BDD8BCF3C1E73009F1E83039F1C3
:100F7000E43069F5809180008062809380008D2D3F
:100F8000992D90938B0080938A00E1C184B580688D
:100F900084BDD7BCDCC180918000806880938000D4
:100FA0008D2D992D9093890080938800D0C18091D8
:100FB000B00080688093B000D092B300C8C1809127
:100FC000B00080628093B000D092B400C0C10038FD
:100FD000110514F460E001C061E08C2D4AC04AE0C4
:100FE00050E066E070E0CE0101960E94810361E46A
:100FF00071E0CE0101960E94FB02182FCE010196EE
:101000000E94CB021123C1F18FE20E94D0028C0119
:10101000AC016BE070E0CE0107960E948103B8013D
:101020006F5F7F4FCE0101960E94DD03CE010796D0
:101030000E94F002862F61E00E94F100CE0101962D
:101040000E94F002613071058105910539F4CE01ED
:1010500007960E94F002862F61E00BC0672B682B79
:10106000692B09F074C1CE0107960E94F002862F09
:1010700060E00E94C1006BC14AE050E066E070E0B1
:10108000CE0101960E94810366E471E0CE010196D3
:101090000E94FB02182FCE0101960E94CB02112361
:1010A00019F16BE070E0CE0101960E94DD03CE01E4
:1010B00001960E94F002FB01EC54FE4F81E0808318
:1010C000CE0101960E94F002660F771FFB01E856E1
:1010D000FE4FF182E082CE0101960E94F002862F3F
:1010E00060E00E94F10080C04AE050E066E070E0FD
:1010F000CE0101960E9481036BE471E0CE0101965E
:101100000E94FB02182FCE0101960E94CB021123F0
:10111000C1F06BE070E0CE0101960E94DD03CE01CC
:1011200001960E94F002FB01EC54FE4F1082CE01AA
:1011300001960E94F002660F771FFB01E856FE4FF2
:1011400051C04AE050E066E070E0CE0101960E9496
:10115000810360E571E0CE0101960E94FB02182F29
:10116000CE0101960E94CB02112381F06BE070E06A
:10117000CE0101960E94DD03CE0101960E94F0028D
:10118000FB01EE56FE4F81E0808323C04AE050E031
:1011900066E070E0CE0101960E94810365E571E092
:1011A000CE0101960E94FB02182FCE0101960E94EB
:1011B000CB021123E1F06BE070E0CE0101960E94BA
:1011C000DD03CE0101960E94F002FB01EE56FE4FB8
:1011D0001082CE0101960E94F002660F771FFB017C
:1011E000EA57FE4FF182E082CE010196B6C04AE096
:1011F00050E066E070E0CE0101960E9481036AE54E
:1012000071E0CE0101960E94FB02182FCE010196DB
:101210000E94CB02112309F4A4C08FE20E94D002E5
:101220008C018FE30E94D0026C018FEFC816D806A4
:1012300021F4C0909302D0909402A8016BE070E07A
:10124000CE0107960E948103B8016F5F7F4FA60110
:10125000CE0101960E948103CE0101960E94F00208
:10126000603292E079070CF03DC077FD06C0653B27
:1012700071052CF064EB70E002C060E070E08091DA
:101280009602D101A81BB10987FDB395AA0FBB1F18
:10129000AA0FBB1F4D01BB0FAA08BB088091970284
:1012A00028E532E0281B310987FD3395220F331FD3
:1012B000220F331FC901330FAA0BBB0B9C01AD01D9
:1012C000281939094A095B09DB010E946F0DA30146
:1012D00092010E94450DDA01C901880D991DAA1DD0
:1012E000BB1DBC01209195022C3088F5809196029F
:1012F000F101E81BF10987FDF395CF01880F991FD4
:10130000880F991F681779078CF08091970248E53C
:1013100052E0481B510987FD5395440F551F440F58
:10132000551FCB01461757070CF4CA010297880FC7
:10133000991F4FB7F89430E0F901EE0FFF1F2E0F01
:101340003F1FF901E659FD4F928381834FBFCE01C4
:1013500001960E94CB02CE0107960E94CB0211E0BB
:1013600001C010E061E671E0CE0101960E946C03BD
:101370008091930290919402892B79F080908F0252
:101380009090900269817A81C4010E94EF0C0097CD
:1013900021F06C01C818D90803C0CC24CA94DC2CF5
:1013A000CE0101960E94CB02FFEFCF16DF0639F186
:1013B000B6016C5F7F4FCE0101960E94DD038CE188
:1013C00091E00E945602112319F08FE591E002C0CE
:1013D00086E691E00E9456024D815E8169817A81A4
:1013E0008DEC91E00E9444018AE00E948D008DEC1A
:1013F00091E00E942202CE0101960E94CB0240E0C1
:1014000050E066E371E08FE892E00E9441031092A1
:10141000C20128E9C22E21E0D22E44EB51E05E87C2
:101420004D8700E010E0ED85FE858191FE87ED8718
:10143000882309F441C0F801E255FF4F8491F80177
:10144000E656FF4F9490F801EA57FF4F84908820AA
:10145000A1F081110E949800E82DF0E0EE0FFF1F2F
:10146000E859FF4FA591B491EC919E2291E080E064
:1014700009F490E0892E982E02C0812C912CF6015F
:101480008081918188169906B9F0918280828DE6DB
:1014900091E00E945602C8010E94580285E391E043
:1014A0000E945602C4010E9458028AE00E948D00E8
:1014B0008DEC91E00E9422020F5F1F4FF2E0CF0EF1
:1014C000D11C0E30110509F0AECF86E8C82E81E0A0
:1014D000D82E42E951E05E874D8700E010E0ED85AF
:1014E000FE858191FE87ED87882351F1802F0E9430
:1014F0002D01802F0E942D01802F0E942D01802F11
:101500000E942D01F60180819181892BC9F0812CE7
:10151000912C9182808289E791E00E945602C80155
:101520000E94580285E391E00E945602C4010E9485
:1015300058028AE00E948D008DEC91E00E94220208
:101540000F5F1F4FF2E0CF0ED11C0630110539F6A8
:101550000E9435046ECC8FE892E00C94CB02991B6C
:1015600079E004C0991F961708F0961B881F7A959A
:10157000C9F780950895EE0FFF1F0590F491E02DB7
:101580000994CF93DF938230910510F482E090E0CC
:10159000E0919A02F0919B0220E030E0C0E0D0E0C0
:1015A000309711F14081518148175907C0F0481711
:1015B000590761F482819381209719F09B838A8374
:1015C0002BC090939B0280939A0226C0211531056F
:1015D00019F04217530718F49A01BE01DF01EF0119
:1015E0000280F381E02DDCCF2115310509F1281BA4
:1015F000390B2430310590F412968D919C911397FC
:101600006115710521F0FB019383828304C09093DF
:101610009B0280939A02FD01329644C0FD01E20FC5
:10162000F31F81939193225031092D933C933AC03B
:101630002091980230919902232B41F420910201CC
:101640003091030130939902209398022091000178
:10165000309101012115310541F42DB73EB740917C
:10166000040150910501241B350BE0919802F09183
:101670009902E217F307A0F42E1B3F0B2817390736
:1016800078F0AC014E5F5F4F2417350748F04E0FDE
:101690005F1F50939902409398028193919302C0E7
:1016A000E0E0F0E0CF01DF91CF9108950F931F9319
:1016B000CF93DF93009709F48CC0FC01329713821B
:1016C000128200919A0210919B020115110581F47A
:1016D00020813181820F931F2091980230919902CD
:1016E0002817390779F5F0939902E093980271C0B1
:1016F000D80140E050E0AE17BF0750F412962D918C
:101700003C911397AD012115310509F1D901F3CFB2
:101710009D01DA013383228360817181860F971FD7
:101720008217930769F4EC0128813981260F371F4E
:101730002E5F3F4F318320838A819B8193838283F5
:10174000452B29F4F0939B02E0939A0242C0139632
:10175000FC93EE931297ED01499159919E01240F4C
:10176000351FE217F30771F480819181840F951F73
:10177000029611969C938E938281938113969C93EB
:101780008E931297E0E0F0E0D80112968D919C9133
:101790001397009719F0F8018C01F6CF8D919C9169
:1017A00098012E5F3F4F820F931F20919802309136
:1017B00099022817390769F4309729F410929B028F
:1017C00010929A0202C0138212821093990200931F
:1017D0009802DF91CF911F910F910895A0E0B0E0A2
:1017E000E4EFFBE00C947B0DEC01009721F4CB01BE
:1017F0000E94C10AB8C0FC01E60FF71F9C012250ED
:101800003109E217F30708F4ACC0D9010D911C911E
:10181000119706171707B0F00530110508F49FC09F
:10182000C80104978617970708F499C00250110958
:10183000061B170B019311936D937C93CF010E94AC
:10184000560B8DC05B01A01AB10A4C01800E911E8F
:10185000A0919A02B0919B0240E050E0E12CF12C63
:10186000109709F44AC0A815B905D1F56D907C9080
:101870001197630182E0C80ED11CCA14DB0480F109
:10188000A3014A195B096A0182E0C80ED11C1296B5
:10189000BC9012971396AC91B5E0CB16D10440F0F2
:1018A000B282A38351834083D9016D937C930AC094
:1018B0000E5F1F4FC301800F911FF9019183808339
:1018C000EB2DFA2FE114F10431F0D7011396FC93BC
:1018D000EE93129744C0F0939B02E0939A023FC0AC
:1018E0008D919C9111974817590708F4AC017D011F
:1018F00012960D90BC91A02DB3CF8091980290913B
:10190000990288159905E1F446175707C8F48091A4
:10191000000190910101009741F48DB79EB740916D
:10192000040150910501841B950BE817F907C8F4D1
:10193000F0939902E0939802F901718360830FC0DC
:10194000CB010E94C10A7C01009759F0A801BE0199
:101950000E94BD0CCE010E94560BC70104C0CE01EF
:1019600002C080E090E0CDB7DEB7EEE00C94970DBA
:1019700081E090E0F8940C94DF0DFB01DC0102C0E3
:1019800001900D9241505040D8F70895FC0181918B
:10199000861721F08823D9F7992708953197CF0129
:1019A0000895FB01DC018D91019080190110D9F39C
:1019B000990B0895FB01DC0101900D920020E1F7E5
:1019C0000895FB01DC014150504030F08D910190B1
:1019D000801919F40020B9F7881B990B0895FB01B1
:1019E00051915523A9F0BF01DC014D9145174111DB
:1019F000E1F759F4CD010190002049F04D914015D7
:101A00004111C9F3FB014111EFCF81E090E0019753
:101A100008951F93FC0199278827BC01E894119130
:101A20001032E9F3193010F01E30C8F31B3251F0B8
:101A30001D3249F4689406C00E94300D610F711D7B
:101A4000811D911D119110531A30B0F33EF4909501
:101A50008095709561957F4F8F4F9F4F1F9108958F
:101A6000592F482F372F262F660F771F881F991F52
:101A7000660F771F881F991F620F731F841F951FA2
:101A8000660F771F881F991F0895052E97FB1EF478
:101A900000940E945C0D57FD07D00E94AE0D07FC1C
:101AA00003D04EF40C945C0D5095409530952195E3
:101AB0003F4F4F4F5F4F089590958095709561957A
:101AC0007F4F8F4F9F4F08950E94D00DA59F900D7F
:101AD000B49F900DA49F800D911D11240895B7FF10
:101AE0000C94640D0E94640D821B930B08952F9239
:101AF0003F924F925F926F927F928F929F92AF929E
:101B0000BF92CF92DF92EF92FF920F931F93CF93EA
:101B1000DF93CDB7DEB7CA1BDB0B0FB6F894DEBF81
:101B20000FBECDBF09942A88398848885F846E84A7
:101B30007D848C849B84AA84B984C884DF80EE80F1
:101B4000FD800C811B81AA81B981CE0FD11D0FB6FA
:101B5000F894DEBF0FBECDBFED010895A1E21A2EAD
:101B6000AA1BBB1BFD010DC0AA1FBB1FEE1FFF1F41
:101B7000A217B307E407F50720F0A21BB30BE40B91
:101B8000F50B661F771F881F991F1A9469F76095D8
:101B90007095809590959B01AC01BD01CF01089592
:101BA000A29FB001B39FC001A39F700D811D11249E
:101BB000911DB29F700D811D1124911D089510E09B
:101BC000C2E6D0E004C0FE010E94BB0A2196C336E3
:081BD000D107C9F7F894FFCF1B
:101BD80000009C0280000100000000000000DB0102
:101BE800440173012202A40182019601616C703ADA
:101BF8002F2F72706C792F006F6B3F69643D300036
:101C0800616C703A2F2F006B707273007070696E80
:101C180000707073770073726C640073706C64008A
:101C280073726C610073706C610063757374006F1C
:101C38006B3F69643D006B6F3F69643D00616C7088
:101C48003A2F2F647265642F00616C703A2F2F61F0
:061C58007265642F00001C
:00000001FF
